:020000040800F2
:10000000A8060020B5170008C5100008C710000892
:10001000CB100008CF100008D3100008000000002B
:10002000000000000000000000000000D7100008E1
:10003000D910000800000000DB100008DD100008E7
:10004000CF170008CF170008CF170008CF170008F8
:10005000CF170008CF170008CF170008CF170008E8
:10006000CF170008CF170008CF170008CF170008D8
:10007000CF170008CF170008CF170008CF170008C8
:10008000CF170008CF170008CF170008CF170008B8
:10009000CF170008CF170008CF170008CF170008A8
:1000A000CF170008CF170008CF170008CF17000898
:1000B000CF170008CF170008CF170008CF17000888
:1000C000CF170008CF170008CF170008CF17000878
:1000D000CF170008DF100008FF100008CF17000836
:1000E000CF170008CF170008CF170008CF17000858
:1000F000CF170008CF170008CF170008CF17000848
:10010000CF170008CF170008CF170008CF17000837
:10011000CF170008CF170008CF170008CF17000827
:10012000CF170008CF170008CF170008CF17000817
:1001300000F002F800F042F80AA090E8000C8244B7
:100140008344AAF10107DA4501D100F037F8AFF294
:10015000090EBAE80F0013F0010F18BFFB1A43F0A5
:100160000103184788190000A8190000103A24BF9D
:1001700078C878C1FAD8520724BF30C830C144BF0C
:1001800004680C607047000000230024002500264E
:10019000103A28BF78C1FBD8520728BF30C148BFEA
:1001A0000B607047642901F09183632901F0348466
:1001B000002070471FB51FBD10B510BD01F066FCD3
:1001C0001146FFF7F7FF00F060FE01F084FC03B476
:1001D000FFF7F2FF03BC01F048F8000010B5044639
:1001E000CA48844208D10121042000F027FB0021E5
:1001F000042000F023FB46E0C548844208D10121D9
:10020000082000F01BFB0021082000F017FB3AE05B
:10021000C048844208D10121102000F00FFB0021CA
:10022000102000F00BFB2EE0BB48844208D10121D6
:10023000202000F003FB0021202000F0FFFA22E044
:10024000B648844208D10121402000F0F7FA00218D
:10025000402000F0F3FA16E0B148844208D10121B1
:10026000802000F0EBFA0021802000F0E7FA0AE09D
:10027000AC48844207D10121801500F0DFFA00214B
:10028000A01500F0DBFA10BD10B50121084600F002
:10029000D5FA0021012000F0D1FA10BD2DE9F0417E
:1002A000024600250026002000230024002791F8A4
:1002B00003C00CF00F0591F803C01CF0100F03D021
:1002C00091F802C04CEA050591F800C0BCF1000F9E
:1002D00031D0146800202BE04FF0010C0CFA00F331
:1002E000B1F800C00CEA03069E4220D183004FF013
:1002F0000F0C0CFA03F7BC4305FA03FC4CEA0404A8
:1003000091F803C0BCF1280F06D14FF0010C0CFA94
:1003100000FCC2F814C00AE091F803C0BCF1480F19
:1003200005D14FF0010C0CFA00FCC2F810C0401CC3
:100330000828D1D31460B1F800C0BCF1FF0F34DD40
:10034000546800202EE000F1080C4FF0010808FA74
:100350000CF3B1F800C00CEA03069E4221D18300E1
:100360004FF00F0C0CFA03F7BC4305FA03FC4CEA00
:10037000040491F803C0BCF1280F05D100F1080C6A
:1003800008FA0CF8C2F8148091F803C0BCF1480FC9
:1003900007D100F1080C4FF0010808FA0CF8C2F878
:1003A0001080401C0828CED35460BDE8F0814FF681
:1003B000FF710180022181700421C17070470246E3
:1003C000002093680B4201D0012000E0002070471C
:1003D0000146886880B2704702460020D3680B420D
:1003E00001D0012000E0002070470146C86880B2BB
:1003F000704701617047416170470AB1016100E0D7
:1004000041617047C16070474FF480320A43826196
:100410008161826182698269704702460020424B95
:1004200018684FF68073184040EA021008433E4BAC
:10043000186070473D49C8617047F0B50A4600230F
:1004400000240021002500F00046B6F1004F02D143
:10045000354EF16901E0344E7168C0F3034583B253
:1004600000F44016B6F5401F08D121F070612E4E01
:10047000766826F070662C4F7E6012E000F48016DD
:10048000B6F5801F06D1032606FA05F4A14341F014
:10049000706106E0460D360103FA06F6B14341F0FD
:1004A000706122B1460D360103FA06F6314300F0C1
:1004B0000046B6F1004F02D11B4EF16101E01A4E29
:1004C0007160F0BD30B500228B071C0F0F2303FABB
:1004D00004F2154B08338C1053F824309343124C1C
:1004E00008348D1044F8253023468C1053F82430FE
:1004F0008C07240F00FA04F423430B4C08348D10AE
:1005000044F8253030BD0A490860704700080140B2
:10051000000C01400010014000140140001801408F
:10052000001C01400020014000000140000020426A
:10053000DC002042DD48006840F00100DB49086033
:1005400008464068DA490840D849486008460068CB
:10055000D8490840D54908600846006820F4802042
:1005600008600846406820F4FE0048604FF41F0011
:1005700088607047CD49096821F48031CB4A116009
:100580001146096821F480211160B0F5803F03D045
:10059000B0F5802F0ED106E0C449096841F48031DE
:1005A000C24A116007E0C149096841F4A021BF4A6D
:1005B000116000E000BF00BF704710B50146002287
:1005C000002300204A11012A02D1B84C236806E01A
:1005D000022A02D1B54C236A01E0B44C636A01F0EF
:1005E0001F02012494401C4201D0012000E00020A1
:1005F00010BD38B5002000900024002500BF312038
:10060000FFF7DBFF05460098401C00900098B0F50E
:10061000A06F01D0002DF2D03120FFF7CEFF08B13E
:10062000012400E00024204638BD014600209F4AF6
:10063000106820F0F80040EAC100106070479E4941
:100640000860704702460020984B586820F47C10E0
:1006500042EA01031843954B586070479649086673
:10066000704701460020914A506820F0030008437B
:10067000506070478D48406800F00C00704701469C
:1006800000208A4A506820F0F0000843506070470C
:1006900001460020854A506820F4E060084350601D
:1006A000704701460020814A506820F4605040EABB
:1006B000C1005060704729B17C4A527A02437B4B9B
:1006C0005A7204E0794A527A8243784B5A727047E0
:1006D0007A490860704701460020744A506820F447
:1006E00040400843506070470021754A11706F4ABE
:1006F00082F82010012802D0042808D103E001214B
:100700006F4A117004E005216D4A117000E000BFCE
:1007100000BF70476B49086070476449096A01432C
:10072000624A11627047674944390860704730B5C2
:1007300000210022002400235C4D6D6805F00C01AF
:1007400021B1042905D0082923D105E05E4D0560BB
:1007500022E05D4D05601FE0544D6D6805F4701298
:10076000524D6D6805F48034022505EB92421CB9A8
:10077000564D554305600BE04C4D6D6815F4003F38
:1007800003D0524D5543056002E04F4D554305607F
:1007900002E04D4D056000BF00BF444D6D6805F09F
:1007A000F00109094A4D6B5C0568DD4045603F4D2D
:1007B0006D6805F4E061090A454D6B5C4568DD40F4
:1007C00085603A4D6D6805F46051C90A404D6B5C17
:1007D0004568DD40C560354D6D6805F44041890BC5
:1007E0003C4D6B5CC568B5FBF3F5056130BD29B1C7
:1007F0002E4A526902432D4B5A6104E02B4A52693A
:1008000082432A4B5A61704729B1284A92690243B0
:10081000264B9A6104E0254A92698243234B9A61F0
:10082000704729B1214AD2690243204BDA6104E0C2
:100830001E4AD26982431D4BDA61704729B11B4AB7
:10084000D2680243194BDA6004E0184AD268824346
:10085000164BDA60704729B1144A12690243134BF0
:100860001A6104E0114A12698243104B1A61704701
:1008700014494039086070470F49C86470470B49F4
:10088000C87170470948406A40F080700749486263
:10089000704701460020054A92680A4201D00120B3
:1008A00000E0002070470149887270470010024044
:1008B0000000FFF8FFFFF6FE00004242D80042426F
:1008C000201002408004424200127A0000093D00DC
:1008D000000000201000002010B50446FB488442B0
:1008E00009D101218803FFF7A9FF00214FF48040BF
:1008F000FFF7A4FF32E0F648844209D10121480401
:10090000FFF7A9FF00214FF40030FFF7A4FF25E017
:10091000F048844209D101218804FFF79CFF00219F
:100920004FF48020FFF797FF18E0EB48844209D18D
:100930000121C804FFF78FFF00214FF40020FFF7CB
:100940008AFF0BE0E548844208D101210805FFF742
:1009500082FF00214FF48010FFF77DFF10BD2DE9CD
:10096000F04786B005460E460024A24600BFA146C9
:100970000027B08900B100BF2F462C8A4CF6FF70CB
:100980000440F08804432C82AC894EF6F3100440F6
:10099000B08831890843718908430443AC81AC8A2B
:1009A0004FF6FF400440B0890443AC8201A8FFF732
:1009B000BEFEC648874202D1DDF810A001E0DDF896
:1009C0000CA0A88910F4004F08D00AEBCA0000EB75
:1009D0000A1031684900B0FBF1F807E00AEBCA00E1
:1009E00000EB0A1031688900B0FBF1F86420B8FB15
:1009F000F0F004012009642101FB1089A88910F49A
:100A0000004F08D0322000EBC900B0FBF1F000F03D
:100A10000700044308E0322000EB09106421B0FB1A
:100A2000F1F000F00F0004432C8106B0BDE8F08720
:100A30004FF41651016000218180C18001810C2199
:100A4000418100218181704710B502460020108A43
:100A50004FF2FF0318400B884C8823438C882343B4
:100A6000CC8823431843108210BD002101804180AF
:100A70008180C180704721B1828942F40052828115
:100A800004E082894DF6FF731A4082817047F0B509
:100A900003460024002600250020A1F510676A3FC8
:100AA00000D100BF1846C1F3421401F01F06012710
:100AB00007FA06F5012C01D10C3004E0022C01D11B
:100AC000103000E014301AB107682F43076002E0CD
:100AD0000768AF430760F0BD1AB1838A0B43838276
:100AE00002E0838A8B4383827047028A4FF6F07359
:100AF0001A400282028A0A430282704782894FF2B8
:100B0000FF731A40828182890A438281704721B132
:100B1000828942F00202828104E082894FF6FD73ED
:100B20001A4082817047028A4FF6DF731A400282B0
:100B3000028A0A430282704721B1028A42F480424B
:100B4000028204E0028A4BF6FF731A400282704769
:100B5000C1F308028280704701468888C0F308000C
:100B60007047818941F0010181817047028BD2B2C7
:100B70000283028B42EA012202837047028B02F455
:100B80007F420283028B0A430283704721B1828A2B
:100B900042F02002828204E0828A4FF6DF731A401C
:100BA0008282704721B1828A42F01002828204E080
:100BB000828A4FF6EF731A408282704721B1828A8F
:100BC00042F00802828204E0828A4FF6F7731A40EC
:100BD0008282704721B1828942F40042828103E01F
:100BE0008289C2F30E028281704721B1828A42F467
:100BF0000062828204E0828A4FF2FF731A4082828E
:100C00007047828A4FF6FB731A408282828A0A43B7
:100C10008282704721B1828A42F00202828204E01D
:100C2000828A4FF6FD731A40828270470246002086
:100C3000B1F5007F00D100BF13880B4201D0012025
:100C400000E00020704701F40072B2F5007F00D18F
:100C500000BFCA430280704770B5024600240023DB
:100C600000250020A1F510666A3E00D100BFC1F347
:100C7000421501F01F03012606FA03F3012D02D1EC
:100C80009689334006E0022D02D1168A334001E0F6
:100C9000968A33400C12012606FA04F41688344072
:100CA00013B10CB1012000E0002070BD10B500228E
:100CB0000023A1F510646A3C00D100BF0A12012490
:100CC0009440A3B2DC43048010BD00000038014012
:100CD0000044004000480040004C004000500040EC
:100CE00031490143314A1160704770B5002100233A
:100CF0000F22C4780CB32D4C246804F4E064C4F5CE
:100D0000E064210AC1F10403CA40447804FA03F103
:100D10008478144021430901254C0678A1550478B4
:100D200004F01F050124AC4005786D114FF0E0265A
:100D300006EB8505C5F8004109E0047804F01F05BD
:100D40000124AC401B4D0678761145F8264070BD55
:100D5000194A0A400243154B1B1F1A60704739B1EC
:100D6000124A121D12680243104B1B1D1A6006E046
:100D70000E4A121D126882430C4B1B1D1A607047ED
:100D8000042808D14FF0E021096941F004014FF037
:100D9000E022116107E04FF0E021096921F0040130
:100DA0004FF0E022116170470000FA050CED00E001
:100DB00000E400E080E100E080FFFF1F002009E088
:100DC000002101E04A1C91B242F210729142F9DB1B
:100DD000421C90B2B0F57A7FF2DB704708B5012172
:100DE0004FF4C870FFF710FD4FF47070ADF80000BD
:100DF00010208DF8030003208DF8020069467E481C
:100E0000FFF74CFA4FF470717B48FFF7F4FA4FF498
:100E1000A070ADF8000048208DF8030069467748BF
:100E2000FFF73CFA0820ADF8000069467448FFF768
:100E300035FA08BD10B540217048FFF7C0FA50B12F
:100E40004FF480716D48FFF7BAFA20B108216C4861
:100E5000FFF7B5FAB8B9FFF7B1FF40216748FFF7D0
:100E6000AEFA08B9012010BD4FF480716348FFF756
:100E7000A6FA08B90220F6E708216148FFF79FFAB1
:100E800008B90320EFE70020EDE7052400F074FA2D
:100E9000FFF7A4FF4FF49641084600F0B2F959A0BD
:100EA00000F0AAFC052000F091FB00F075FB054660
:100EB00029465CA000F0A0FC00F0A3FB05462946F3
:100EC0005DA000F099FC00F04FFB054629465FA0AD
:100ED00000F092FC8EE0FFF7ADFF012804D002285D
:100EE00043D0032840D17EE000F03EFB0546294672
:100EF00056A000F081FCE0B200F09DFB20B101287B
:100F000011D004282FD11EE0641C53A000F074FC03
:100F100080213948FFF76DFAFFF750FF80213648EE
:100F2000FFF769FA1FE050A000F066FC4FF48071F3
:100F30003148FFF75EFAFFF741FF4FF480712E480A
:100F4000FFF759FA0FE04BA000F056FC4FF4007188
:100F50002948FFF74EFAFFF731FF4FF4007126489A
:100F6000FFF749FA00BF00BF43E000F0F3FB30B1E8
:100F7000052812D0082820D00F2832D12DE041A01A
:100F800000F03AFC80211C48FFF733FAFFF716FF08
:100F900080211948FFF72FFA23E03DA000F02CFC38
:100FA0004FF480711448FFF724FAFFF707FF4FF45E
:100FB00080711148FFF71FFA13E038A000F01CFC05
:100FC0004FF480710C48FFF714FAFFF7F7FE4FF467
:100FD00080710948FFF70FFA03E032A000F00CFC23
:100FE00000BF00BF05E000F07FFB31A000F004FC73
:100FF00000BF00BF6FE70000001C0140002001405F
:101000000010014054657374205561727420466964
:101010006E6765727072696E742052656164657284
:101020000D0A0000B1C8B6D4B5C8BCB6CEAAA3BAE2
:1010300025640D0A00000000B5B1C7B0B3ACCAB159
:10104000CAB1BCE4A3BA25640D0A000055736572E9
:101050003A25640D0A000000D6B8CEC6CCEDBCD34C
:10106000B3C9B9A60D0A0000B2D9D7F7CAA7B0DC38
:101070000D0A0000D6B8CEC6BFE2D2D1C2FA0D0A20
:1010800000000000C6A5C5E4B3C9B9A60D0A00005A
:10109000CEDEB4CBD3C3BBA70D0A0000B3ACCAB13C
:1010A0000D0A0000474F204F55540D0A0000000064
:1010B000CBF9D3D0D6B8CEC6D2D1C7E5BFD50D0AAD
:1010C00000000000704700BFFEE700BFFEE700BF62
:1010D000FEE700BFFEE7704770477047704710B5E6
:1010E00040F225511048FFF7B7FD38B10E48FFF721
:1010F00033FD044621460DA000F07EFB10BD10B567
:1011000040F225510A48FFF7A7FD58B10848FFF7FC
:1011100023FD0849084A1278885407480078401C83
:101120000549087010BD000000380140256300002B
:1011300000440040300000202C00002010B50121A8
:101140000420FFF761FB01218803FFF75DFB01210C
:101150004804FFF766FB10BD08B518208DF80300A2
:101160004FF40070ADF8000003208DF802006946CE
:101170004748FFF793F804208DF803000002ADF80C
:10118000000069464248FFF789F818208DF80300EF
:101190000420ADF8000003208DF8020069463C48A9
:1011A000FFF77CF804208DF803000820ADF800005C
:1011B00069463748FFF772F808BD08B54FF4A060DC
:1011C000FFF78EFD25208DF8000002208DF801002C
:1011D00000208DF8020001208DF803006846FFF71B
:1011E00084FD26208DF8000002208DF801000020EB
:1011F0008DF8020001208DF803006846FFF775FDA9
:1012000008BD7FB505460C46FFF798FF0095002006
:10121000ADF80600ADF80400ADF80800ADF80C001C
:101220000C20ADF80A0069461A48FFF798FB012226
:1012300040F225511748FFF72AFC01211548FFF716
:101240001AFC009469461448FFF789FB012240F21A
:1012500025511148FFF71BFC01210F48FFF70BFC3C
:10126000FFF77AFFFFF7A9FF7FBD014600BF704778
:1012700070B504460D46E1B20648FFF769FC00BFB1
:1012800080210448FFF7D2FC0028F9D0204670BD29
:101290000008014000380140004400400CB5002027
:1012A000019000906B48006840F480306949086004
:1012B00000BF6848006800F4003000900198401CAE
:1012C0000190009818B90198B0F5A06FF1D161486C
:1012D000006810F4003F02D00120009001E00020DF
:1012E00000900098012842D15B48006840F010004F
:1012F000594908600846006820F003000860084665
:10130000006840F002000860524840685149486057
:101310000846406848600846406840F4806048607D
:101320000846406820F47C1048600846406840F455
:10133000E81048600846006840F08070086000BF10
:101340004448006810F0007FFAD04248406820F01E
:101350000300404948600846406840F00200486089
:1013600000BF3C48406800F00C000828F9D10CBDD3
:1013700010B5FFF793FF10BD10B53648006840F078
:101380000100344908600846406834490840314942
:10139000486008460068324908402E4908600846FF
:1013A000006820F4802008600846406820F4FE00B1
:1013B00048604FF41F008860FFF7DAFF4FF00060CD
:1013C0002849086010BD10B5002100200022214BE3
:1013D0005B6803F00C0121B1042906D0082928D14B
:1013E00007E0214B214C236027E01F4B1F4C23605B
:1013F00023E0184B5B6803F47010164B5B6803F432
:101400008032022303EB904022B9194B4343174C1F
:1014100023600DE00F4B5B6813F4003F04D0144BC6
:101420004343124C236003E00F4B43430F4C2360B4
:1014300003E00D4B0D4C236000BF00BF054B5B6804
:10144000C3F303130B4CE15C084B1B68CB40074C08
:10145000236010BD00100240002002400000FFF891
:10146000FFFFF6FE08ED00E000127A0018000020F1
:1014700000093D001C000020002009E0002101E0DF
:101480004A1C91B242F210729142F9DB421C90B2B6
:10149000B0F57A7FF2DB704710B504462146BF48AD
:1014A000FFF756FB00BF8021BC48FFF7BFFB0028B9
:1014B000F9D010BD2DE9F04781460C469246F52043
:1014C000FFF7EAFF0027002508E0B549485DFFF770
:1014D000E3FFB348405D4740681CC5B24D45F4DBAF
:1014E0003846FFF7D9FFF520FFF7D6FF0020AD49BA
:1014F0000870AD480AFB00F801E0A8F10108A9480E
:101500000078A04202DAB8F1000FF6D1A5480078C1
:10151000A04202D00820BDE8F087A4480078F52852
:1015200001D00120F7E7601EA049085CF52801D032
:101530000120F0E79D48407899490978884201D018
:101540000120E8E70027012604E09848805D474035
:10155000701CC6B293480078401EB042F5DC0FB153
:101560000120D8E70020D6E710B509208C49087083
:10157000002048708870C87008710A220821052070
:10158000FFF798FF04462CB98848007910B98748BE
:10159000C07810BDFF20FCE710B5282080490870F6
:1015A0000020487088700120C870002008710A224D
:1015B00008210520FFF77EFF04462CB97B480079FF
:1015C00010B97A48C07810BDFF20FCE770B504461A
:1015D0002820734908700020487008468470002055
:1015E000C87008710A2208210520FFF763FF05462D
:1015F0002DB96E48007910B96C48C07870BDFF20D5
:10160000FCE710B52E2066490870002048708870ED
:101610000120C870002008710A2208210520FFF768
:1016200049FF04462CB96148007910B95F48C07879
:1016300010BDFF20FCE770B50546FFF795FF044697
:10164000282C01DB042070BD0120554908700020C2
:101650004870084685700320C8700020087140213A
:101660005348FEF7C6FEC82208210520FFF722FFD7
:10167000044640214E48FEF7BEFE74BB4B4800793D
:1016800058BB02204649087040214948FEF7B1FE88
:10169000C82208210520FFF70DFF044640214448D9
:1016A000FEF7A9FEE4B941480079C8B903203C49D6
:1016B000087040213E48FEF79CFEC8220821052004
:1016C000FFF7F8FE044640213948FEF794FE2CB996
:1016D0003648007910B90020B5E703E00120B2E7F1
:1016E0000120B0E70120AEE710B505202C490870B5
:1016F000002048708870C8700871322208210520C7
:10170000FFF7D8FE04466CB92848007950B980210B
:101710002748FEF76EFEFFF7AFFE80212448FEF754
:101720006AFE0BE04FF480712148FEF762FEFFF77E
:10173000A3FE4FF480711E48FEF75DFE10BD01460A
:10174000012903D0022901D0032901D101207047CA
:101750000020FCE710B50C201149087000204870EB
:101760008870C8700871962208210520FFF7A2FE34
:1017700004463CB90D490879FFF7E1FF012801D182
:10178000002010BD09480079052800D1F9E7074875
:101790000079082800D1F4E70F20F2E70044004068
:1017A000390000202C000020C0D4010030000020AF
:1017B000001C01400948804709480047FEE7FEE752
:1017C000FEE7FEE7FEE7FEE7FEE7FEE7FEE7FEE7F1
:1017D00004480549054A064B704700007913000884
:1017E00031010008A8000020A8060020A80200205F
:1017F000A8020020704700000FB4044910B503AAE6
:10180000029800F015F910BC5DF814FB14000020DC
:101810002DE9F0410E460446002020622046E16892
:10182000884730B3252805D0D4E901219047206AA4
:10183000401CF2E7E168204600278847050018D0E1
:10184000A5F14100192802D820354FF4006732462F
:10185000294620462760FEF7A5FC40B1012804D0A8
:10186000F61D26F007060836D8E7361DD6E72846C7
:10187000DAE7206ABDE8F08170B50C460546012A1A
:1018800005D02878800600D5EA69002302E001230C
:1018900005E05B1C934202D2E05C0028F9D1A86904
:1018A000E618C01AA861286A184428622846AFF3CF
:1018B000008004E0D5E9012114F8010B9047B442FF
:1018C000F8D32846AFF3008070BD00002DE9F04149
:1018D0000646002410687529314616A511D0AFF3CD
:1018E0000080002803DAC0F1000013A507E031688A
:1018F0008A0701D511A502E0490704D510A50124E6
:1019000001E0AFF3008000210A2306F1240707E07D
:10191000B0FBF3F203FB1200303078541046491C40
:101920000028F5D123462A463046BDE8F04100F0B4
:101930000DB80000000000002D0000002B0000008A
:101940002000000070477047704770472DE9F0474E
:101950000D4699469246044600F12408016888061F
:1019600004D5E06921F01001216000E00120A842C7
:1019700002DDA0EB050700E00027A16907EB0502E7
:1019800002EB0900A1EB0000A0612078C00602D4A0
:101990002046AFF30080002608E0D4E901211AF8C0
:1019A00006009047206A401C761C20624E45F4DBFE
:1019B0002078C0060AD52046AFF3008006E0D4E9BF
:1019C000012130209047206A401C2062381EA7F178
:1019D0000107F4DC07E0D4E9012118F8050090477D
:1019E000206A401C2062281EA5F10105F3DC204678
:1019F000AFF300802078000602D50220BDE8F08712
:101A00000120FBE710B5436913B1AFF3008001E09B
:101A1000FFF732FF012010BD127800F124010A7097
:101A200000224A700122EDE711684FF0FF32E9E72A
:101A3000074B70B50D467B4400F011F8044628466C
:101A400000F020F810B14FF0FF3070BD204670BD9F
:101A500037F8FFFF01694A1C02610878704700B53A
:101A60008FB0CDE901310021059105497944CDE9D7
:101A7000031011466846FFF7CBFE0FB000BD000013
:101A8000E5FFFFFF007B00F080007047754600F027
:101A900029F8AE4605006946534620F00700854602
:101AA00018B020B5FFF794FEBDE820404FF00006C7
:101AB0004FF000074FF000084FF0000B21F0070136
:101AC000AC46ACE8C009ACE8C009ACE8C009ACE879
:101AD000C0098D4670470446AFF300802046FEF7EC
:101AE00076FB000000487047440000200C1B0008F3
:101AF00000000020300000006C0100083C1B0008C2
:101B00003000002078060000880100080000000076
:101B1000010203040102030406070809020406087F
:101B20000000000000A24A040000000000000000C5
:0C1B300001020304060708090000000081
:0400000508000131BD
:00000001FF
